:020000040800F2
:1000000000010020A10100089D0C00088584000863
:100010009D0C00089D0C00089D0C00089D0C00081C
:100020009D0C00089D0C00089D0C0008D9110008CB
:100030009D0C00089D0C00089D0C00089D0C0008FC
:100040009D0C00089D0C00089D0C00089D0C0008EC
:100050009D0C00089D0C00089D0C0008950D0108E2
:10006000AD0D0108C50D01089D0C00089D0C000890
:100070009D0C00089D0C0008790D01089D0C0008DE
:100080009D0C00089D0C0008890801089D0C0008C3
:100090009D0C00089D0C00089D0C00089D0C00089C
:1000A0009D0C00089D0C00089D0C00089D0C00088C
:1000B000D12000089D0C00089D0C00089D0C000834
:1000C0009D0C00089D0C00089D0C00089D0C00086C
:1000D0009D0C0008552100089D0C00089D0C00088F
:1000E0009D0C00089D0C00089D0C00089D0C00084C
:1000F0009D0C00089D0C00089D0C00089D0C00083C
:100100009D0C00089D0C00089D0C00089D0C00082B
:100110009D0C00089D0C00089D0C00089D0C00081B
:100120009D0C00089D0C00089D0C00089D0C00080B
:100130009D0C00089D0C00089D0C00089D0C0008FB
:100140009D0C00089D0C00089D0C00089D0C0008EB
:100150009D0C00089D0C00089D0C00089D0C0008DB
:100160009D0C00089D0C00089D0C0008D924000877
:100170009D0C00089D0C00089D0C00089D0C0008BB
:100180009D0C00089D0C00089D0C00089D0C0008AB
:100190009D0C00089D0C00089D0C00089D0C00089B
:1001A00072B6344880F3098840F20000CCF20000B7
:1001B0004EF63471CEF200010860BFF34F8FBFF3EB
:1001C0006F8F40F20000C0F2F0004EF68851CEF280
:1001D00000010860BFF34F8FBFF36F8F4FF0000037
:1001E000E1EE100A4EF63C71CEF2000108600620E6
:1001F00080F31488BFF36F8F00F012FD02F0A8FAAD
:100200004FF055301C491D4A91423CBF41F8040B48
:10021000FAE71B49174A91423CBF41F8040BFAE741
:100220001849194A194B9A423EBF51F8040B42F83B
:10023000040BF8E700201649164A91423CBF41F8EA
:10024000040BFAE700F0F2FC00F0ECFC124C134D4A
:10025000AC4203DA54F8041B8847F9E707F050FF73
:100260000F4C104DAC4203DA54F8041B8847F9E7F1
:1002700000F0DABC00030020000000200001002094
:1002800000010020585E010800030020EC0300205C
:10029000F0030020188B0020A0010008A001000836
:1002A000A0010008A00100082DE9F04F2DED108AF3
:1002B000C1F80CD0C3689D46BDEC108ABDE8F08F34
:1002C000002383F311882846A047002000F042FF56
:1002D00000F0CAFE00DFFEE781F0004102E000BF4F
:1002E00083F0004330B54FEA41044FEA430594EAF6
:1002F000050F08BF90EA020F1FBF54EA000C55EA31
:10030000020C7FEA645C7FEA655C00F0E2804FEA01
:100310005454D4EB5555B8BF6D420CDD2C4480EAE3
:10032000020281EA030382EA000083EA010180EA13
:10033000020281EA0303362D88BF30BD11F0004F61
:100340004FEA01314FF4801C4CEA113102D0404297
:1003500061EB410113F0004F4FEA03334CEA1333D2
:1003600002D0524263EB430394EA050F00F0A780EA
:10037000A4F10104D5F1200E0DDB02FA0EFC22FAE5
:1003800005F2801841F1000103FA0EF2801843FAD9
:1003900005F359410EE0A5F120050EF1200E012ACA
:1003A00003FA0EFC28BF4CF0020C43FA05F3C01808
:1003B00051EBE37101F0004507D54FF0000EDCF181
:1003C000000C7EEB00006EEB0101B1F5801F1BD32A
:1003D000B1F5001F0CD349085FEA30004FEA3C0C2E
:1003E00004F101044FEA445212F5800F80F09A8024
:1003F000BCF1004F08BF5FEA500C50F1000041EB28
:10040000045141EA050130BD5FEA4C0C404141EB2B
:100410000101013C28BFB1F5801FE9D291F0000F26
:1004200004BF01460020B1FA81F308BF2033A3F1D5
:100430000B03B3F120020CDA0C3208DD02F1140CCC
:10044000C2F10C0201FA0CF021FA02F10CE002F107
:100450001402D8BFC2F1200C01FA02F120FA0CFC00
:10046000DCBF41EA0C019040E41AA2BF01EB045149
:10047000294330BD6FEA04041F3C1CDA0C340EDC47
:1004800004F11404C4F1200220FA04F001FA02F38A
:1004900040EA030021FA04F345EA030130BDC4F148
:1004A0000C04C4F1200220FA02F001FA04F340EA3D
:1004B0000300294630BD21FA04F0294630BD94F0EE
:1004C000000F83F4801306BF81F480110134013DD5
:1004D0004EE77FEA645C18BF7FEA655C29D094EA46
:1004E000050F08BF90EA020F05D054EA000C04BFC4
:1004F0001946104630BD91EA030F1EBF00210020AF
:1005000030BD5FEA545C05D14000494128BF41F04D
:10051000004130BD14F580043CBF01F5801130BDB1
:1005200001F0004545F0FE4141F470014FF000003C
:1005300030BD7FEA645C1ABF194610467FEA655CED
:100540001CBF0B46024650EA013406BF52EA03358F
:1005500091EA030F41F4002130BD00BF90F0000F7D
:1005600004BF0021704730B54FF4806404F13204B9
:100570004FF000054FF0000150E700BF90F0000F72
:1005800004BF0021704730B54FF4806404F1320499
:1005900010F0004548BF40424FF000013EE700BF69
:1005A00042004FEAE2014FEA31014FEA02701FBFF9
:1005B00012F07F4393F07F4F81F06051704732F02B
:1005C0007F4208BF704793F07F4F04BF41F4002182
:1005D000704730B54FF4607401F0004521F00041E0
:1005E0001CE700BF50EA010208BF704730B54FF06A
:1005F00000050AE050EA010208BF704730B511F06B
:10060000004502D5404261EB41014FF4806404F1A2
:1006100032045FEA915C3FF4D8AE4FF003025FEA28
:10062000DC0C18BF03325FEADC0C18BF033202EBAC
:10063000DC02C2F1200300FA03FC20FA02F001FA06
:1006400003FE40EA0E0021FA02F11444BDE600BFA9
:100650004FEA4102B2F1E04324BFB3F5001CDCF1E4
:10066000FE5C0DD901F0004C4FEAC0024CEA50701C
:10067000B2F1004F40EB830008BF20F0010070474B
:1006800011F0804F21D113F13872BCBF01F000404E
:10069000704741F480114FEA5252C2F11802C2F180
:1006A000200C10FA0CF320FA02F018BF40F0010001
:1006B0004FEAC1234FEAD32303FA0CFC40EA0C00B3
:1006C00023FA02F34FEA4303CCE77FEA625307D1F0
:1006D00050EA01331EBF4FF0FE4040F44000704727
:1006E00001F0004040F0FE4040F40000704700BFC1
:1006F00080F0004002E000BF81F0004142001FBFD7
:100700005FEA410392EA030F7FEA226C7FEA236CDF
:100710006AD04FEA1262D2EB1363C1BFD2184140D4
:1007200048404140B8BF5B42192B88BF704710F06A
:10073000004F40F4000020F07F4018BF404211F00D
:10074000004F41F4000121F07F4118BF494292EA75
:10075000030F3FD0A2F1010241FA03FC10EB0C00A1
:10076000C3F1200301FA03F100F0004302D549422E
:1007700060EB4000B0F5000F13D3B0F1807F06D3DB
:1007800040084FEA310102F10102FE2A51D2B1F1D3
:10079000004F40EBC25008BF20F0010040EA0300C8
:1007A0007047490040EB0000013A28BFB0F5000F48
:1007B000EDD2B0FA80FCACF1080CB2EB0C0200FAFE
:1007C0000CF0AABF00EBC25052421843BCBFD0404D
:1007D0001843704792F0000F81F4000106BF80F4C7
:1007E00000000132013BB5E74FEA41037FEA226C8A
:1007F00018BF7FEA236C21D092EA030F04D092F055
:10080000000F08BF0846704790EA010F1CBF002088
:10081000704712F07F4F04D1400028BF40F00040E5
:10082000704712F100723CBF00F50000704700F005
:10083000004343F0FE4040F4000070477FEA22622C
:1008400016BF08467FEA23630146420206BF5FEAFD
:10085000412390EA010F40F4800070474FF00003FD
:1008600004E000BF10F0004348BF40425FEA000CC4
:1008700008BF704743F0964301464FF000001CE06C
:1008800050EA010208BF70474FF000030AE000BFC2
:1008900050EA010208BF704711F0004302D5404200
:1008A00061EB41015FEA010C02BF84460146002072
:1008B00043F0B64308BFA3F18053A3F50003BCFA8D
:1008C0008CF2083AA3EBC25310DB01FA02FC63443A
:1008D00000FA02FCC2F12002BCF1004F20FA02F241
:1008E00043EB020008BF20F00100704702F1200234
:1008F00001FA02FCC2F1200250EA4C0021FA02F295
:1009000043EB020008BF20EADC70704753B94AB9D4
:10091000002908BF00281CBF4FF0FF314FF0FF3007
:1009200000F074B9ADF1080C6DE904CE00F006F8E2
:10093000DDF804E0DDE9022304B070472DE9F0475B
:10094000089D04468E46002B4DD18A42944669D9B3
:10095000B2FA82F252B101FA02F3C2F1200120FA96
:1009600001F10CFA02FC41EA030E94404FEA1C48E4
:10097000210CBEFBF8F61FFA8CF708FB16E341EAE0
:10098000034306FB07F199420AD91CEB030306F166
:10099000FF3080F01F81994240F21C81023E634487
:1009A0005B1AA4B2B3FBF8F008FB103344EA03442B
:1009B00000FB07F7A7420AD91CEB040400F1FF3340
:1009C00080F00A81A74240F207816444023840EA7D
:1009D0000640E41B00261DB1D4400023C5E90043B6
:1009E0003146BDE8F0878B4209D9002D00F0EF8039
:1009F0000026C5E9000130463146BDE8F087B3FA6C
:100A000083F6002E4AD18B4202D3824200F2F98053
:100A1000841A61EB030301209E46002DE0D0C5E956
:100A2000004EDDE702B9FFDEB2FA82F2002A40F0A2
:100A30009280A1EB0C014FEA1C471FFA8CFE0126A5
:100A4000200CB1FBF7F307FB131140EA01410EFB49
:100A500003F0884208D91CEB010103F1FF3802D2F0
:100A6000884200F2CB804346091AA4B2B1FBF7F0EA
:100A700007FB101144EA01440EFB00FEA64508D90D
:100A80001CEB040400F1FF3102D2A64500F2BB804A
:100A90000846A4EB0E0440EA03409CE7C6F1200799
:100AA000B34022FA07FC4CEA030C20FA07F401FADF
:100AB00006F31C43F9404FEA1C4900FA06F3B1FB68
:100AC000F9F8200C1FFA8CFE09FB181140EA0141CD
:100AD00008FB0EF0884202FA06F20BD91CEB01016A
:100AE00008F1FF3A80F08880884240F28580A8F1C2
:100AF00002086144091AA4B2B1FBF9F009FB101114
:100B000044EA014100FB0EFE8E4508D91CEB0101B1
:100B100000F1FF346CD28E456AD90238614440EA54
:100B20000840A0FB0294A1EB0E01A142C846A646D4
:100B300056D353D05DB1B3EB080261EB0E0101FA5D
:100B400007F722FA06F3F1401F43C5E900710026BA
:100B50003146BDE8F087C2F12003D8400CFA02FC10
:100B600021FA03F3914001434FEA1C471FFA8CFE20
:100B7000B3FBF7F007FB10360B0C43EA064300FB10
:100B80000EF69E4204FA02F408D91CEB030300F1AE
:100B9000FF382FD29E422DD9023863449B1B89B265
:100BA000B3FBF7F607FB163341EA034106FB0EF3EE
:100BB0008B4208D91CEB010106F1FF3816D28B429B
:100BC00014D9023E6144C91A46EA004638E72E4667
:100BD000284605E70646E3E61846F8E64B45A9D25F
:100BE000B9EB020864EB0C0E0138A3E74646EAE7CE
:100BF000204694E74046D1E7D0467BE7023B61447C
:100C000032E7304609E76444023842E7704700BFE4
:100C1000034613F8012B002AFBD1181A013870473C
:100C2000704700BF704700BFFEE700BFF8B5164D24
:100C3000164F17491748184A05F1700481420DD91B
:100C4000043A034652F8046F43F8046B9942F9D80A
:100C50004B1E1B1A23F0030304331844874202D8A7
:100C6000A54209D10EE07A1E121A22F003020432C4
:100C7000002110F077FBF3E7D5E90420D5E906174A
:100C80001035DBE7F8BD00BFBC130108188B00204E
:100C9000188B0020188B0020445F0108FEE700BF7E
:100CA000FEE700BF38B5194D00F006F900F080F8F6
:100CB00017498022284600F0D9F9164B164A45F804
:100CC000180C01210024017502619C60D968134A47
:100CD0004FF6FF0001400A43DA60D3F8FC201049C8
:100CE00042F08072C3F8FC200A6842F001020A60F8
:100CF00010202022D87783F8222084F3118862B64E
:100D00000848BDE8384000F0D5B900BF50050020C4
:100D10003C14010800ED00E0000100200003FA058A
:100D2000001000E04C14010872B6014B5862FEE757
:100D3000280500202DE9F0471C4D4FF080486C69D4
:100D4000D8F82400296AA368421A934205F11406D0
:100D500000D91CE000274FF020092268D4F80CA02D
:100D60000B44B2422B6256606A61E76001D100F029
:100D700093FA87F311882069D04789F311886C6949
:100D8000D8F82400296AA368421A9342E5D9B442EC
:100D900009D00B441B1ABDE8F047022B2CBFC0182A
:100DA000023000F07FBABDE8F08700BF28050020C0
:100DB000054B4FF0FF3003F114020021C3E9052277
:100DC000C3E90701704700BF2805002070B505463C
:100DD0001B4E4FF080400229406AC5E9032332468A
:100DE00038BF022152F8143F93420AD13062C6E95B
:100DF00005550844C5E90033A960BDE8704000F01E
:100E000043BA346A9A680844041BA24203D900F02A
:100E100049FA73699A68944204D91B68A41A9A68BB
:100E2000A242FAD35A68C5E9003215605D60AC6031
:100E30009A684FF0FF31121B9A60F16170BD00BFDC
:100E4000280500201B4B5A69824210B40DD0D0E90E
:100E50000021143300249A420A605160C46026D0F5
:100E6000936881680B44936021E01846116840F84C
:100E7000141F002481424860D46003D15DF8044B04
:100E800000F00ABA886892681B6A02444FF08044F6
:100E90008A60606AC11A8A4209D91B1A1A445DF82D
:100EA000044B022A2CBF8018023000F0FBB95DF819
:100EB000044B704728050020024B0022C3E9003391
:100EC0009A6070472805002000228168054B027552
:100ED0001B689A688A42FBD25A68C0E900321060E7
:100EE000586070472805002008B5202383F3118837
:100EF000037D032B03D0042B05D043B90DE0836998
:100F000000221A6003E0D0E9003213605A604FF00B
:100F1000FF338361FFF7D8FF002383F3118808BDF7
:100F200000228168054B02751B689A688A42FBD8CB
:100F30005A68C0E9003210605860704728050020E8
:100F400038B50D4C2569236828751A68226001217F
:100F5000546023611975EFF309822969643A91425B
:100F600003D90648FFF7E0FE236929461846BDE885
:100F70003840FFF799B900BF280500206414010824
:100F800030B54B1C87B00FD00B4D0C4A2B69044673
:100F900001A8FFF71BFF2046FFF7D2FF049B33B1E8
:100FA00001A8FFF74FFF02E0FFF7CAFF024D2B69D0
:100FB000986907B030BD00BF28050020E90E000881
:100FC00070B5114E8161336981689A68914203D886
:100FD000BDE87040FFF778BF04461846FFF774FF7E
:100FE0000123054634612375EFF309830269643BED
:100FF0009A4202D90548FFF797FE29462046BDE8E8
:101000007040FFF751B900BF2805002064140108A3
:10101000044B1A681B6990689B68984294BF002033
:10102000012070472805002038B50D4C2368206941
:101030001A6822600121546019752361FFF770FF5F
:101040000546EFF309830269643B9A4202D90548D9
:10105000FFF76AFE20692946BDE83840FFF724B94A
:101060002805002064140108FFF7DEBF022182601A
:101070008182704730B4D0E9014301690C4A43F8DA
:10108000441CA3F1840543E9055402214469C06866
:1010900043F8242C002203F80C1C03F80B2C43F813
:1010A000404C43F8180C30BCA3F12000704700BF3F
:1010B000C102000810B504464068A268904203D2FD
:1010C000121A552110F04EF9202383F3118820467F
:1010D000FFF7D0FF00210446FFF772FF002383F3E0
:1010E0001188204610BD00BFF8B51F46431898422E
:1010F00005460C46164603D20A46552110F032F931
:10110000202383F31188203C2C44A4F16403069926
:101110000A4AE360022344F8201CA38244F8247C9A
:10112000256144F8042CA66000212046FFF748FF03
:10113000002383F311882046F8BD00BFC1020008D8
:10114000034B1B6902469A610F20FFF7F9BE00BFEF
:1011500028050020202383F31188FFF7F1BF00BF8B
:1011600008B50146202383F311880820FFF708FF04
:10117000002383F3118808BD69B1084A10B41269CD
:1011800044680346C2E90034042022605DF8044B41
:101190005A60FFF7F5BE4FF0FF307047280500207A
:1011A00003460068834205D002681A60536081617B
:1011B000FFF78ABE704700BF38B504460068844216
:1011C00009D00D46036823605C608561FFF77CFEF3
:1011D00020688442F6D138BD80B4094A536B23F0AD
:1011E000010300AF5363EFF30983683383F3098886
:1011F000002383F31188BD465DF8047B704700BF70
:1012000000EF00E098B5202300AF83F31188114B65
:101210005B6813F400631AD0F1EE103AEFF309841F
:101220000D4B4FF08072DB6B44F8083C44F84C2CBB
:10123000A4F1680383F30988FFF7EAFE18B1074BAE
:1012400044F8503C05E0064B44F8503C01E083F381
:10125000118898BD00ED00E000EF00E0D102000829
:10126000D402000808B500F0CDFE00F0E7FA00F067
:10127000A1FC00F083FB01F06DFABDE8084000F02E
:1012800001B800BF00F03ABF4FF0804300210222B6
:1012900058631961DA6070474FF080430022DA60CA
:1012A000704700BF4FF0804358637047C36810B465
:1012B00044691960816982680B44A342C36002F1EA
:1012C000010228BF036A5DF8044B826028BFC36037
:1012D000704700BF043210B4C0E90731826103FBDC
:1012E00002120023019C8360C0E90933029BC4629F
:1012F000C0E90000C0E903115DF8044B42610363DB
:10130000704700BF016A0022C0E90311C0E9092249
:1013100082606FF00101FFF74FBF00BF08B5FFF714
:10132000C5FFBDE808400021FFF73ABF836810B54C
:1013300004463BB123691A6804331A44C4E90932EC
:10134000002003E0FFF718FF0028F3D010BD00BF16
:10135000D0E9043110B48469826823448B4203616C
:1013600024BF036A0361013AC36A826000224262B9
:1013700013B15DF8044B18475DF8044B704700BF8C
:1013800070B52023054683F31188446A44B9FFF7FA
:10139000CDFF064608B96C6A02E084F311880BE0C1
:1013A00014F8016BAA6A6C62944202D32846FFF7D4
:1013B000CFFF002383F31188304670BD2DE9F0473D
:1013C0009A46044689469046202383F311880027D5
:1013D000616A29B951462046FFF7A8FFB8B9616A8A
:1013E000A26AA8EB0705521A954228BF15462A465D
:1013F00048460FF08FFFD4E909632E449E4266628F
:101400002F44204601D3FFF7A3FFB845E0D80023BF
:1014100083F311883846BDE8F08700BFD0E9033276
:10142000934203D182680AB100207047181D7047AB
:10143000836823B1006950F8043B0B60704718467D
:10144000704700BFD0E9043110B484698268234436
:101450008B42036102F1FF3228BF036A5DF8044B3F
:10146000826028BF03610021FFF79ABED0E90332F2
:10147000934210B5044601D1826832B9A1691A1DA0
:101480000B44C4E90923002004E0FFF775FE08B906
:10149000E368F3E710BD00BF10B5FFF707FFC36AAD
:1014A0000022426213B1BDE81040184710BD00BFD2
:1014B00070B5202304460D4683F31188466A46B969
:1014C0001146FFF7D3FF08B9666A02E086F3118878
:1014D0000EE03570D4E9093201339342636204D3DC
:1014E000A16920460439FFF7D7FF002080F3118857
:1014F00070BD00BF2DE9F84399460446884617465B
:10150000202383F311880026606A28B949462046C3
:10151000FFF7ACFFC8B9606AA26ABD1B121A9542F8
:1015200028BF154608EB06012A460FF0F3FED4E962
:1015300009032844984260622E44204603D3A169DF
:101540000439FFF7A9FFB742DED8002383F31188DF
:101550003046BDE8F88300BF38B5856855B9416AA3
:1015600041B1C3680439C91A06D0FFF79FFE45622E
:10157000012002E0002000E0084638BD0346C069B3
:101580001A69013A411C1A61DA68D961105C5A691A
:10159000914224BF0022DA61704700BF036982696B
:1015A00001330361531C8361C3689954D0E9053248
:1015B0009A4224BF00238361704700BF10B4002407
:1015C000C0E90314C0E90644C0E900005DF8044B1B
:1015D00042618360704700BF0022C0E906220261B9
:1015E0006FF00101FFF7E8BD08B5D0E904239A4286
:1015F00006D2FFF7D3FF0021FFF7D2FD002001E064
:101600004FF0FF3008BD00BF38B50446202383F3F8
:101610001188036933B12046FFF7B0FFA368054680
:101620002BB906E0FFF7A8FD054610B9F3E7204601
:101630009847002383F31188284638BD2DE9F84FD9
:1016400005462DED028B884608EE103A17462023FA
:1016500083F311884FF0000A39E0A7EB0A039C429C
:1016600028BF1C466CB3012C08EB0A0307D128469F
:10167000FFF784FF08F80A000AF1010A21E0D5F813
:1016800014B0EE69E968ABEB06094C4507D231446A
:10169000224618460FF03EFEEE6926440CE0314427
:1016A0004A4618460FF036FEA6EB0B062644E968BC
:1016B000484432460FF02EFE2B69EE611B1B2B6156
:1016C000A244AB680BB12846984757450AD92C6904
:1016D000002CC2D118EE101A2846FFF74DFD08B9AC
:1016E0002C69BAE7002383F31188BDEC028B5046C6
:1016F000BDE8F88F38B504460D46202383F31188E2
:10170000D0E90413994206D229462046FFF746FF46
:10171000A3682BB905E01146FFF72EFD10B9F3E7DA
:1017200098470020002383F3118838BD036910B562
:101730004BB10446FFF722FF0021034620461C461A
:10174000FFF72EFD01E04FF0FF34204610BD00BF33
:101750002DE9F04F2DED028B054608EE103A83B0CF
:101760008846202383F311880026914638E0A9EBB0
:101770000604FB1A9C4228BF1C465CB3012C08EBF4
:10178000060106D118F8061028460136FFF706FFB5
:1017900020E0D5F818B0E868A7EB0B0A544506D24C
:1017A000224658440FF0B6FDAF6927440DE052467B
:1017B00058440191ABEB07070FF0ACFD0199E868C5
:1017C00027443A4651440FF0A5FD2B69AF612344ED
:1017D0002B612644AB680BB128469847B1450CD91C
:1017E000D5E90437BB42C2D318EE101A2846FFF7DA
:1017F000C3FC10B9D5E90437B9E7002383F3118896
:10180000304603B0BDEC028BBDE8F08F4FF0FF31E6
:101810000830FFF7F9BE00BF4FF0FF322830FFF766
:1018200069BF00BF4FF0FF330830FFF707BF00BFAD
:101830004FF0FF332830FFF78BBF00BF00F0C4BC70
:1018400070B504460B460B482060012115462171F6
:1018500004F1080004F148014022FFF7AFFE2B46D7
:1018600004F1880104F128004022BDE87040FFF730
:10187000A5BE00BF7414010810B52023044683F3ED
:10188000118800F0C9FC02232371002383F311881F
:1018900010BD00BF10B5046BD4F83C211368197853
:1018A000042982B017D12179022914D1107919891C
:1018B000012202FA00F30B420DD101A904F13C0010
:1018C000FFF7B6FD024630B1D4F83C01019B017927
:1018D000006800F0BFF902B010BD00BF4FF0FF314B
:1018E0000830FFF74DBD00BFD0F83C311B681B78B6
:1018F000042B04D14FF0FF323C30FFF7D9BD6FF01D
:10190000010070474FF0FF330830FFF757BD00BFAD
:10191000D0F83C311B681B78042B04D14FF0FF3307
:101920003C30FFF7E7BD0020704700BFD0F83C21F6
:101930001368197804291BD110B5017902290446CE
:1019400015D150795989012202FA00F30B420ED1C8
:1019500004F10800FFF762FD024640B1D4F83C01F3
:10196000402341790068BDE8104000F05DB910BD2A
:10197000704700BF006BFFF7D9BF00BF704700BFC3
:1019800010B504460D480E4A226082B0012323712F
:1019900004F17001CDE90004402204F10800FFF7D2
:1019A00099FC084B4022CDE9003404F1B401022334
:1019B00004F13C00FFF78EFC02B010BD7519000861
:1019C00094140108951800080B68202282F31188EE
:1019D0000A7903EB820290624A79113243F82200BD
:1019E0008A7912B103EB8203986202230371C0F873
:1019F0003C11002383F31188704700BF10B50446E3
:101A00000830FFF77FFC04F13C00BDE81040FFF711
:101A100079BC00BF10B504460830FFF773FC04F131
:101A20003C00FFF76FFC2046BDE81040FFF77EBF8B
:101A300090F8743003F06003202B14D190F87530C7
:101A4000212B02D81F2B03D80DE0222B06D00AE051
:101A5000064A0723C0E91A23012070470023C0E982
:101A60001A33012070470020704700BF0003002098
:101A7000D0F83C2113681978042920D130B50179B8
:101A8000022983B0044618D110791989012202FA7B
:101A900000F30B4211D104F13C052846FFF75CFD31
:101AA00058B101A92846FFF7C3FC0246D4F83C010F
:101AB000019B0179006800F0CDF803B030BD70479C
:101AC00070B500EB81030446986A84B048B30D46B4
:101AD000202383F3118804EB81063C30F3685B69B3
:101AE0001B6803B903E00190FFF7ACFC019803A960
:101AF000FFF79EFC30B10246039B2946204600F0CA
:101B0000A9F80BE0F3685A691B8A12689A4205D15A
:101B1000034602462946204600F09CF8002383F342
:101B2000118804B070BD00BF113110B550F82140CC
:101B3000B4B1202383F31188D4F83C21136852797F
:101B400003EB8203DB689B69596819B104F1080053
:101B5000FFF7E4FB2046FFF7E9FE002383F311883B
:101B600010BD00BF704700BF10B50021044600F053
:101B70009DFD0021204600F087FD63681B6813B1BE
:101B8000052120469847062384F8643010BD00BF25
:101B900010B5B0F8763080F87E30044600F098FB3F
:101BA00063681B6813B10121204698470323237003
:101BB00010BD00BF00F060BB10B501230446382201
:101BC00000F82C3B00210FF0CDFB0023C4E90133CA
:101BD00010BD00BF10B50B460446202282F31188C9
:101BE000002143600C300FF0BDFB204600F04AFBA3
:101BF00002232370002383F3118810BD536900EB87
:101C0000810CCCF80C203BB14FF0000CC3F800C0A5
:101C1000C3F804C0C3F808C093691BB100221A605E
:101C20005A609A6000F05EBB70B500EB8104468993
:101C3000E468A569012404FA01FE4EEA060EA0F844
:101C40000AE0AA600022C5E90032BDE8704000F059
:101C5000F1BB00BF70B500EB81040689E4686569DB
:101C6000012404FA01FE4EEA060EA0F808E0AA607C
:101C70000022C5E90032BDE8704000F0EDBB00BFB6
:101C800070B5022304460025037020222946C5674B
:101C900085600C300FF066FB84F86450204600F03D
:101CA00073FB63681B6823B129462046BDE870407A
:101CB000184770BD42680521017013680BB10321FC
:101CC00018477047426804210170136803B1184730
:101CD000704700BF38B50446002580F8645000F115
:101CE000740200F08BFB636825679B682BB994F83E
:101CF000743013F0600F06D0B9E0204698470028F2
:101D000040F0BA80F3E703F01F03012B94F875202D
:101D100056D0022B5BD0002B40F0A980092A00F29C
:101D2000A680DFE802F0050BA40BA41F25A4363C17
:101D3000022204F17C03C4E91A329EE0B4F8763042
:101D4000012B40F09480B4F87C3023F002039BB266
:101D5000032A08BF43F00203A4F87C300023C4E93F
:101D60001A338FE0604A22670023C4E91A3389E0FE
:101D7000B4F876106268B4F8783055682046CAB274
:101D8000090AA847002872D0D0E90023C4E91A3212
:101D900073E0012204F17F03C4E91A326DE094F884
:101DA0007630626884F87F30002B14BF0421032151
:101DB00021701368002BD1D0022120469847CDE72F
:101DC000002A54D1494B0222C4E91A3255E0B4F832
:101DD000783003F00F0103F080030C2A47D801A0EC
:101DE00050F822F0191E0008451E00086F1E00085A
:101DF000451E00086F1E00086F1E00086F1E0008B9
:101E00006F1E00086F1E00086F1E00086F1E00087E
:101E10006F1E0008C51D0008204613B100F0E0FA4F
:101E200001E000F0CFFA012802D0022805D01EE020
:101E30002F4B0222C4E91A321FE02E4B0246C4E99E
:101E40001A301AE0B4F8760088B981B1012A204628
:101E500006D113B100F054FC80E700F039FC7DE7B7
:101E600013B100F023FC79E700F00EFC76E7204682
:101E7000BDE83840FFF778BEE26EB4F87A3093429E
:101E800038BFE366202383F3118894F97430002B64
:101E9000E36E12DA43B1A26E00212046FFF7DAFEAC
:101EA000012384F864301AE01A4619462046FFF7E9
:101EB000BBFE032384F8643011E043B1A26E00211D
:101EC0002046FFF7B1FE042384F8643007E01A4689
:101ED00019462046FFF7BEFE052384F86430002330
:101EE00083F3118838BD00BF911B0008BC140108A2
:101EF000B8140108B414010838B590F864300446E9
:101F0000062B3AD8DFE803F035041E35352E3500B0
:101F1000C36EB0F87A20934214D2C268158AB3FB1C
:101F2000F5F205FB12356DB9202383F311882B469A
:101F30002A462946FFF78EFE85F31188022384F88E
:101F400064301AE0202383F3118800231A461946CF
:101F50002046FFF769FE002383F31188032384F8EA
:101F600064300AE0036F03B19847002384F86430BB
:101F700003E0BDE83840FFF7F7BD38BD90F86430A6
:101F800010B50446062B23D8DFE803F01E1E1E13EF
:101F9000041E1E00202383F3118800231A461946CD
:101FA000FFF758FE002383F31188052384F864307B
:101FB0000EE0C3689B695B6853B9036F03B1984730
:101FC000002384F8643003E0BDE81040FFF7CCBD87
:101FD00010BD00BF43099B0000F1604C03F160435A
:101FE00003F5614309010CF5614C00F01F0001226B
:101FF00002FA00F0C9B28CF80013C3F8800118602F
:10200000704700BF0D4B4FF0FF310022986A996274
:102010009A62186919611A61D868D960DA60DA6958
:10202000074942F08052DA619A6942F001029A61EE
:102030000B6843F020030B60704700BF00100240A4
:10204000000001401F4A136843F001031360136846
:102050009807FCD553681B4923F00303536053686A
:1020600053604B6813F00C03FBD10868154A00F06D
:10207000F90008604B600B6843F480330B60136811
:102080009903FCD542F2101130230F485060D16201
:10209000136313680B4943F0807313600B689B0153
:1020A000FCD50A4B12221A604B68064A43F0020321
:1020B0004B60536803F00C03082BFAD1136B1363C6
:1020C000704700BF0010024000041D0700200240BE
:1020D0004FF080431A6992070DD510B500241C619A
:1020E000202383F31188FEF725FE84F31188BDE8D1
:1020F0001040FFF787B8FFF785B800BF0F491048B9
:10210000CA6942F0010230B4CA6181684FF080436D
:1021100040F2CF2441F00101816000229C624FF027
:10212000FF350124DD6202219A611C205A63DA60C6
:102130005A605C611C6030BCFFF74CBF001002406D
:10214000002004E0024A136843F0800313607047E4
:1021500000380140F8B51A4ED6F8C8402768E5693E
:102160002562202383F31188AA0608D50836A18C9E
:102170003046C9B2FFF738FAE569AB06F7D43E0638
:1021800010D528060ED50F4E3046FFF7CFFA00289F
:1021900080B203DA27F08003236003E02085E5693D
:1021A0002906F1D47A0604D56B0644BF27F0400710
:1021B0002760002383F31188BDE8F840FFF722B8B9
:1021C0006C0500209405002010B5084C084A2046F4
:1021D0000021FFF735FB074A074B0221C4E93223F0
:1021E0002520BDE81040FFF7F5BE00BF6C050020BC
:1021F000452100080038014000A24A04D0E93232EB
:102200001868B2FBF1F120F001001860D9601A687B
:1022100042F001021A60704770B561B1D1E9013531
:10222000CA68096843F4967345F0400542F001021C
:1022300043F0010306E04FF4164140F22D13012252
:1022400044F240050479012C07D1094CA04204D185
:10225000084EB46944F48044B461D0F8C840656065
:10226000A2602360FFF7CAFF4FF0FF33236270BD07
:102270006C050020001002400148FFF79DBC00BF24
:102280003C06002038B50378012B19D10D4A904245
:10229000044610D10C490D4DCA6942F40002CA61CE
:1022A0004A202B640D21FFF795FE03214B20FFF7F9
:1022B00091FE00232B642046BDE83840FFF7E0BCC8
:1022C00038BD00BF3C06002000100240005C00400A
:1022D00090F87E30024A43F08003D364704700BF19
:1022E000005C004000EB810370B4DC68236803F0FD
:1022F0000303032B06D0002B0CBF4FF4007C4FF0E0
:10230000000C01E04FF4C06C1E4B1B6D03F18043C9
:1023100003F5C04303EB011263696BB1238AD0F864
:102320008050013323F001032B44002656604CF00B
:10233000200CC0F880301560A369BBB1638A3E2BC6
:1023400005D95C1E641144F02004013302E001331E
:10235000C3F34E04A402D460D0F8804023F00103FC
:102360002344C0F880304CF4005C94608B0003F18F
:10237000804303F5B8434CEA01011A681A6070BC47
:1023800019607047005C00400C4A10B400218024A2
:1023900011655164D4644468E4688C420CBF4FF406
:1023A0001C444FF41E4414644024054AC0F8804085
:1023B000C2605DF8044BFFF795BF00BF005C0040B2
:1023C000C0140108054B53F8210010F4405004D00C
:1023D000B0F5805F14BF022001207047005C004010
:1023E000054B53F8210010F0300003D0102814BF23
:1023F00002200120704700BF005C00400C4B1B6DA9
:1024000003F1804303F5C04303EB011110B48B6863
:1024100003F1005303F540535B00D3E90040D3E9D7
:102420000213148050805DF8044B9180D380704774
:10243000005C0040074A52F8213023F4904323F017
:10244000700383F4405343F4004343F0800342F8A5
:1024500021307047005C004000EB810070B4C3681D
:102460005D691C8AAA68D5E900369B1B9C4228BF7F
:102470001C46184B1B6D03F1804303F5C04303EB6F
:10248000011004F1010C5FEA5C0C036844600ED09B
:1024900003F1005303F540535B00B01E03EB8C0CBB
:1024A000024432F8020F43F8040B6345F9D1094A9C
:1024B00052F8213023F4F04323F0400383F030033B
:1024C00043F40043344443F080036C6070BC42F832
:1024D00021307047005C00402DE9F04F674B5C6C89
:1024E000E243610587B05A6402D56548FFF7C8FB2F
:1024F000220507D5614A6248136C43F00803136450
:10250000FFF7D8FBE3040AD55C4B9A6C170406D49A
:102510001A6C5B4822F008021A64FFF7D3FBA60589
:1025200007D5DFF85CB1DBF80430DB680BB1584647
:102530009847250407D5DFF848B1DFF84891DFF860
:102540003CA1D84604E007B0BDE8F04FFEF75ABE04
:1025500004F00F018B0003F180438E1C03F5B84398
:102560000BEB8602E406186855681A6819D4686986
:10257000D0E9000402EA090242F4004284421A60EF
:1025800003D24046FFF768FF71E0BBF80830AC6843
:1025900001228A4023EA0203ABF80830002C66D0FF
:1025A00056E002EA090242F080021A60020503D5F1
:1025B0006B68404698475AE0DAF85020AF6902F15C
:1025C000804202F5C04202EB01129068D2F80CC0C2
:1025D0007A6801921446BA6800F10050224400F56E
:1025E000405040000292CCF34804CCF30902CDE9FC
:1025F000044003924CB1029A023A02EB440E50F8A6
:10260000044B22F8024F7245F9D11CF0010F08D09B
:10261000DDE90402029C52F8202004F810207A68B8
:102620000192019A039C3868224482427A6002D265
:102630006A8AA2420FD90BEB860601227368DC6816
:10264000BBF80A308A4023EA0203ABF80A3074B1BF
:102650004046A0470BE01A6822F4904222F0700234
:1026600082F4405242F4004242F080021A60DAF8EA
:10267000444023043FF56CAF65E700BF005C0040B9
:102680003C0600200F07FFFF074A52F8213023F4D1
:10269000904323F0700383F4805343F4004343F0EA
:1026A000800342F821307047005C0040074A52F82E
:1026B000213023F4F04323F0400383F0100343F46C
:1026C000004343F0800342F821307047005C004033
:1026D000890001F1804101F5B8410B6803F44053D2
:1026E000B3F5405F0BD00B6823F4904323F07003E5
:1026F00083F4005343F4004343F080030B607047BE
:10270000890001F1804101F5B8410B6803F0300305
:10271000302B0BD00B6823F4F04323F0400383F0FD
:10272000200343F4004343F080030B60704700BF75
:1027300080B4064B00AFD3F8002882F30888D3F8A2
:102740000438BD465DF8047B184700BF00D0FF1F6A
:10275000FFF778BC014B11221A607047002002403D
:1027600070B500F10B06B64600E00023B1FBF2F4B1
:1027700002FB1415092D8CBF4FF0370C4FF0300CB5
:10278000AC445FFA8CFC0D460EF801CD21460BB12E
:10279000013BEBD19542E8D2A6EB0E06064400F8C9
:1027A00001CB864202D01EF801CFF8E7304670BD5B
:1027B000092970B5FCEEC07A0E461A4BA8BF09264F
:1027C000B8EE677A53F8263030EE470A07EE103A33
:1027D000F8EE476AB6EE007AA0EE267A0D46BCEE19
:1027E000C77A17EE104AA34205D8E41A17EE903ABA
:1027F000013307EE903A17EE901A00230A22FFF7F2
:10280000AFFF75B10849898A11F4807F14BF2C216C
:102810002E2100F8011B33462146BDE87040FFF72A
:102820009FBF70BDF0140108080300200389012B2D
:1028300006D943685A1C426019700389013B038121
:10284000002070472DE9F04F2DED048B0C468BB026
:1028500014F8011BA9B10023DFEDA78A9FEDA78A19
:10286000DFEDA79A9FEDA79A0193074691464FF097
:10287000200808E0019B3344019314F8011B11B9AF
:102880002AE3019128E3252901D1002507E03B68CF
:1028900038469B689847019B01330193EDE7234637
:1028A00014F801BBBBF12D0F02D145F00205F6E78C
:1028B000BBF12B0F02D145F00405F0E7BBF1300F5F
:1028C00002D145F01005EAE7BBF16A0F02D145F0ED
:1028D0008005E4E7BBF1200F02D145F02005DEE7DB
:1028E000BBF1620F02D00133002602E045F480758F
:1028F000D5E7ABF13002D2B2092A49461C4606EBB5
:10290000860006D9BBF12A0F08D151F8042BD2B2A8
:10291000894613F801BB02EB4006EAE7BBF12E0F34
:1029200015D14FF0000A14F801BBABF13003DBB254
:10293000092B4A460AEB8A0106D9BBF12A0F0AD1B4
:1029400052F8043BDBB2914603EB410AEBE745F05A
:1029500040054FF0000AABF14403342B00F22E8205
:10296000DFE813F06B002C022B012C022C026B0011
:102970002C022C022C022C022C021D022C022C02F6
:102980002C022C022C021B022C022C0235002C02E1
:102990002C022C022C022C022C022C022C022C02C7
:1029A0002C0237006B002C022B012C022C026B0036
:1029B0002C022C022C022C022C021D022C029D0047
:1029C0002C0243002C021B022C022C023500102288
:1029D000E6E159F8043B8DF8103025F0100501238D
:1029E0000DF1100B0DF1110A58E259F804BB25F056
:1029F0001001BBF1000F04D16806DFF810B106D456
:102A000012E06A069BF8003000F15E8209E047F6AA
:102A1000FE72DA461AF8010FABEB0A03134448B909
:102A200039E2002B00F053820AF1FF32BAF1000FB5
:102A3000EFD14CE20133EDD12DE259F8041B00290E
:102A40000ADA2D238DF8103004AB45F00805494211
:102A50000DF11100029315E06B0707D52B238DF8BC
:102A6000103004AB0DF1110002930BE0A80607D55E
:102A700020238DF8103004AB0DF11100029301E01A
:102A800004A802902A0644BF6A2300F8013B0A22E8
:102A90000023FFF765FE029B8246C31A95E14B4671
:102AA00053F8042B0393BAF1000F40F0FC814FF070
:102AB000030E4FF00E09144BA3FB0230C00800EBCD
:102AC0008003A2EB43033033DBB2092A8DF81D30BB
:102AD00039D944F6241A4FF0000B0DF11D0C19E002
:102AE0001AF0010F14D04FF020030CF8023C0BF148
:102AF000010BACF1020C0CE000007A446F12833A37
:102B0000BD378635FF237449CDCCCCCCDC1401080D
:102B10008C461046B74BA3FB0032D20802EB82036F
:102B2000A0EB43033033DBB209280CF8013C0CF175
:102B3000FF314FEA5A0AD3D8AF4A0DF11E0012F8FE
:102B40000BC0401A04E001204FF0200C0DF11D01D4
:102B500004AA029210449246202B01F101020CD1EA
:102B60001EF0010F03D00EF0FE0E2E2308E01EF023
:102B7000020F05D14B788A1C02E01EF0010F05D12F
:102B8000B9F1000F09F1FF3107DB89460AF8013B73
:102B90008245114601D01378DEE71EF0020F05D002
:102BA000BCF1200F1CBF20230AF8013BDDE90239EC
:102BB0000AF801CBAAEB030307E1EB0504D559F8AA
:102BC000043B00EE103A0AE009F1070929F0070971
:102BD000F9E80201FDF73CFD00EE100A0346B5EEF0
:102BE000C00AF1EE10FA0DD52D23B1EE400A04AA69
:102BF0008DF8103045F0080510EE103A0DF1110077
:102C0000029215E0680707D52B228DF8102004AA40
:102C10000DF1110002920BE0A90607D520228DF8D4
:102C2000102004AA0DF11100029201E004A8029004
:102C30002A0648BF6A2223F0004348BF00F8012B50
:102C4000B3F1FF4F09D1824619230AF8023B202332
:102C50004370029BAAEB0303B7E06B0605D5BBF1FB
:102C6000460F08D04FF0090A7BE0BBF1460F78D140
:102C70000FFA8AFB02E04FF0030AD346B4EEE80AEB
:102C8000F1EE10FA13DB5D4B4D2260EE087A4AB18B
:102C9000B4EEC90AF1EE10FA04DB13F8012FB0EE1E
:102CA000670AF2E713F8013CB0EE670A1EE0F7EEA0
:102CB000007AB4EEE70AF1EE10FA1DD5504BF0EEB3
:102CC000407A1D2220EE280A4AB1F4EEC87AF1EECD
:102CD00010FA04D513F8012FF0EE407AF2E7F4EE83
:102CE000E97AF1EE10FA07DD13F8013C2BB10AF195
:102CF000FF3A0FFA8AFB00E00023FCEEC07A17EEE1
:102D0000902A632A04D9ABF1020B0FFA8BFB05E082
:102D1000092A84BF0BF1FF3B0FFA8BFB2BEAEB7107
:102D20000393FFF745FDBBF1000F039B824614DDC3
:102D300010F8012C302A05D1411E8A4611F8012DC8
:102D4000302AFAD02F49898A11F4807F14BF2C21B0
:102D50002E218A4208BF0AF1FF3A33B10AF8013B3B
:102D600003E05146FFF724FD8246E80600D410E058
:102D70001AF8013C302B85F0100506D10AF1FF321C
:102D8000924612F8013D302BFAD02E2B08BF0AF1E3
:102D9000FF3A029BAAEB030317E00A2200E0082295
:102DA0000DF1100B002359F8041BCDF808B058465C
:102DB000FFF7D6FC8246A0EB0B0306E004AA8DF8D1
:102DC00010B001230DF1110A0292F61A09D415F080
:102DD000100FDDF808B00CBF4FF020084FF030089E
:102DE00004E0DDF808B0002600E00026A90744D47E
:102DF0000EE000BFCDCCCCCCE4140108E6140108F1
:102E000019150108080300200D46DA464FF0200886
:102E100015F02C0F13D0EA0611D5019B1BF8011BEE
:102E2000013301933B6838469B68984707E03B684D
:102E300041469B6838469847013DF8D13CE035460D
:102E4000002EF4D116E05D463B6815F8011B9B6827
:102E500038469847AA45F7D8019A0AF1FF33A3EB01
:102E60000B030BF1010B0132DA4538BF0023134489
:102E7000019304E0D345E6D3FFE4DA45E3D8002E1E
:102E80003FF4FBAC35463B6841469B683846984763
:102E9000013DF8D1EEE40D46AAEB0B03F61AA4D4DB
:102EA0004FF02008A2E7BAF10E0FD1464FF0010E05
:102EB000A8BF4FF00E09FEE5019BD34533440193B3
:102EC00038BF2E46BFD3D8E4002B7FF4A0ADAB07AC
:102ED0009AD54FF02008D2E701980BB0BDEC048BD7
:102EE000BDE8F08F0CB410B50C1E84B011DD0C4B96
:102EF0000699ADF80C40CDE9013007AA01A800926F
:102F0000FFF7A0FC029B002284421A7002DC601EC4
:102F100000E0002004B0BDE8104002B0704700BFE0
:102F200024150108024400F8011B9042FBD17047B0
:102F300010B5024410F8013B11F8014B9042A3EB8D
:102F4000040301D0002BF5D0184610BDC369023927
:102F5000023B8B4283BF4389006B01FB03000020CF
:102F60007047000000F10B010022D30143EA520335
:102F700010F8012B52FA83F38842DAB2F5D11046E9
:102F80007047000010B54178044601310020490126
:102F90000246022A07D0A35C03EBC0339BB203EBCB
:102FA000500398B200E0032201329142F1D810BDE3
:102FB00003685A1C02601878A0F16103192B01D82C
:102FC000203870477F2803D9024B184410F8800C32
:102FD000704700BF5C150108F0B585B0054601914A
:102FE00014461E46E3B233B101A8FFF7E1FF002803
:102FF0003BD0013CF6E72B78002B32D1002C30D0AF
:10300000012033E02A2B0FD002A8FFF7D1FF07469B
:1030100003A8FFF7CDFF874201461DD1002FEFD057
:10302000029B1B783F2BEDD1FEB10022029B581C66
:10303000029019785B783F290CBF013242F480720C
:103040003F2BF3D02A2BF1D00399731EFFF7C4FF57
:103050000028D5D1039B197801A8FFF7A9FF24B157
:1030600019B1019B02950393DAE7002005B0F0BD8A
:1030700002687AB1134613F8011B1F2908D93A29AF
:10308000F9D1911C8B4205D11278302A02D103600C
:10309000002070474FF0FF307047000038B50D46F4
:1030A00010B90920002311E003680446002BF8D072
:1030B0001A78002AF5D08188DA889142F1D15878BF
:1030C0000DF00CF910F00100EBD123682B6038BD36
:1030D00038B50D4640F26231144602F095F9FF28EA
:1030E00006D9012C09D9030A2B706870022407E065
:1030F00028B12CB12870012402E0002400E004462D
:10310000204638BD2DE9F8430026D0F800808E76A1
:10311000836B002B00F0CD8098F80030042B0C4618
:1031200045D1334635464027D8F8102092F8231071
:10313000B1421FD97F2F00F2B880F90608BF0237CD
:103140000136D05B02372BB900F5205292B2B2F5AE
:10315000006F0DD305F11A01C5F12002214440EAA8
:103160000340FFF7B5FF002800F09F8005440020D2
:103170000346D9E7002B40F09880002D00F09580A1
:1031800025440023AB766373D8F810301A7902F027
:1031900037012173D20658BFD3E90E019A896281A3
:1031A00044BF00200021C4E90001DB897BE0C36C3F
:1031B0000133054625D0B1463746D8F80C30985B28
:1031C000B8B1B9F1000F05D100F520539BB2B3F5AA
:1031D000006F0BD307F11A01C7F12002214440EA26
:1031E0000940FFF775FF28B10744002002368146E9
:1031F000E3E73846B9F1000F18BF0020231800227A
:103200009A76EA6B0023551E18462E2615F8011FE4
:10321000202900F101000CD0052908BFE52109286B
:1032200004D10B2B02D8E71801337E73E718013362
:1032300079730B28EAD1E11800204873A17E39BBCD
:1032400033B16FF00C0604F10D010825361B0BE0BD
:103250003F23A376012315E02E2883B20FD0A3F1DC
:103260004100192806D90B73731811F8010B0028B7
:10327000F2D107E0107B0542F5D02033F3E71025AB
:103280000346F0E7234400219976137B03B9637367
:10329000D37A03F03F032373D36923600023636071
:1032A000D38A6381138B238103E03F23A376012517
:1032B00066E7BDE8F883000038B50546002435F818
:1032C000020B80B102F0D6F8630803EBC433C2B23C
:1032D00012FA83F39AB2C0F3072303EB520303EB12
:1032E000C2339CB2EBE7204638BD000001380A44E7
:1032F00011F8013B00F8013F9142F9D170470000FD
:1033000037B5C3780BB900251CE000F13C01826B96
:1033100001910446012340780DF02EF8054680B94E
:10332000A36AE070A06B226AC31A9342EBD2A3781F
:103330000199022BE7D10244012360780DF01CF8BB
:1033400000E00125284603B030BD000038B5836B8E
:103350008B4212D005460C46FFF7D2FF70B92246C9
:103360006878012305F13C010CF0C4FF00281CBF64
:103370004FF0FF340120AC6300E0002038BD0000B6
:1033800038B50023C3704FF0FF3383630446FFF763
:10339000DDFF002848D1B4F83A524AF655239D4241
:1033A00007D124490B2204F13C00FFF7C1FD00289E
:1033B0003CD094F83C30EB2B03D01833DBB2012B1C
:1033C0002BD84AF655239D4206D11B49082204F109
:1033D0008E00FFF7ADFD60B3B4F84730B3F5007F62
:1033E0001BD194F84930C3B15A1E1A4215D1B4F812
:1033F0004A3093B194F84C30013B012B0DD8B4F80E
:103400004D3053B1B4F84F307F2B03D8E36DB3F593
:10341000803F02D3B4F8523053B94AF65520854262
:103420000CBF0220032004E0042002E0012000E0A1
:10343000002038BD341501084015010802392DE976
:10344000F047466B01F007044FF0010A0AFA04F452
:1034500005461746984606EB1136C1F3C809E4B293
:10346000314628460136FFF771FFF8B905EB09022E
:1034700092F83C30234214BF01210021414517D06E
:103480006340013F82F83C3085F803A011D064000E
:1034900014F0FF04EAD109F10103B3F5007F4FF006
:1034A00001044FF00009DBD09946DFE7012000E07E
:1034B0000220BDE8F0870000012940F28780F8B5BE
:1034C0000668F3698B420C4640F282803378013BF8
:1034D000032B7DD8DFE803F00229374701EB5105C4
:1034E000B16A304601EB5521FFF730FF10B14FF0C4
:1034F000FF3071E06F1CB16AC5F30805354401EB7C
:103500005721304695F83C50FFF720FF0028EED1B8
:10351000C7F308073E44E30796F83C0045EA00205D
:103520004CBF0009C0F30B0056E0B16A304601EB16
:103530001421FFF70BFF0028D9D1640004F4FF74B5
:103540002644B08F48E0B16A304601EBD411FFF752
:10355000FDFE0028CBD1A40004F4FE742644F06BD9
:1035600020F0704038E0D0E9043153EA0102C57917
:1035700001D0826802B95DBB82687789022DA4EB15
:1035800002020CD1013B41F1FF315B0A43EAC15316
:10359000B3FBF7F39A421BD81CD0601C1CE0032D30
:1035A00002D183699342F8D8C3699BB9B16A3046A6
:1035B00001EBD411FFF7CAFE002898D1A40004F44F
:1035C000FE742644F06B20F0004005E001207047B7
:1035D000012001E06FF00040F8BD0000F8B506687A
:1035E0003378042B0CBF4FF080524FF400128A4204
:1035F00001D8022039E0CA060D46FAD1826801637B
:1036000004466AB9022B06D83389B3EB551FF0D9AB
:10361000F36AA3631AE0F36AC271002BF4D01A466E
:1036200077897F02BD4211460CD32046FFF744FF45
:10363000431C024618D00128DBD9F3698342D8D94C
:10364000ED1BEFE73046FFF781FCA063A36B6263DD
:10365000002BCED003EB55233C36C5F3080535448B
:10366000A363E563002000E00120F8BD01296DD9C6
:103670002DE9F843C3698B4205460C4668D90378A7
:10368000022B16463ED002D8012B04D060E0033B4B
:10369000012B43D95CE001EB5107816A01EB572113
:1036A000FFF754FE002854D114F0010407F101097A
:1036B00005F13C08C7F3080708D018F8073003F0F5
:1036C0000F02330103F0F003134300E0F3B208F8F4
:1036D0000730A96A0123EB7001EB59212846FFF757
:1036E00035FEB0BBC9F3080914B1C6F3071606E0EE
:1036F00018F80930C6F3032623F00F031E4308F819
:10370000096020E0816A01EB1421FFF71FFE00BB76
:10371000640004F4FF742C44A68714E0816A01EB72
:10372000D411FFF713FEA0B92B46A40013F83C2BCD
:10373000042A04F4FE7405D01A5926F0704602F0EB
:10374000704216431E510123EB7002E002207047C5
:103750000220BDE8F8830000F8B504460F4616467F
:10376000E36973B1012BA7EB030514BFAA1C324612
:103770002068691CFFF77AFF20B9E369013BE36128
:10378000EEE71846F8BD000001292DE9F843056869
:1037900001D8022074E0EB698B420C46F9D9064649
:1037A00017460AB9A14627E02B78042B02D1C3792A
:1037B000022BF7D04FF0FF3239462846FFF756FF6D
:1037C0000028EFD05CE00128E3D0421C2DD02B78FC
:1037D000042B2CD1D5E90632023A934205D20133AB
:1037E000AB612B7943F001032B7108F10102A24276
:1037F00025D1EB69A34207D921463046FFF75CFE8D
:10380000A04604460028DED12B78042B37D123E0D4
:10381000F3794BBBB468BC422FD021463046FFF74A
:103820004BFE0128B5D9431C1AD1012028E0002203
:1038300041462846FFF71AFF0028CBD020E02B781E
:10384000042B07D10023A2EB090249462846FFF7C3
:10385000F5FDA8B9A146CCE7002FD9D1F7710EE04C
:1038600001348442D7D00AE0032B08D1B368BB42AD
:1038700005D8B2691344BB4201D30223F37100207F
:10388000BDE8F883C379032B12D18168836970B5D1
:103890000446CD18A94207D04E1C20683246FFF7D7
:1038A000E5FE38B93146F5E70023E371184601E03B
:1038B0000020704770BD0000F7B504460191FFF786
:1038C0001FFD00BB019905462046FFF73FFB04F1B1
:1038D0003C070646A0634FF4007229463846FFF7BE
:1038E00021FB63899D4204D36089401B18BF0120DE
:1038F0000AE060780123721939460CF03DFD00287A
:10390000F2D10135EDE7012003B0F0BD70B50446FA
:10391000FFF7F6FC88BB2378032B26D12379012BF4
:1039200023D104F13C06014605464FF400723046AF
:10393000FFF7F8FA4AF65522A4F83A220F4AE26352
:1039400002F1FF5202F500522032C4F82022A2698F
:10395000C4F824226269C4F82822626A60780132BD
:10396000A26331460CF008FD2571002260781146F3
:103970000CF052FD003818BF012070BD5252614159
:10398000F0B5002385B00B600F461546FFF770FBBE
:10399000061EC0F2F8807F4B53F82640002C00F042
:1039A000F4803C60237805F0FE056BB160780CF084
:1039B00095FCC70708D4002D00F08F8110F0040596
:1039C00000F08B810A2588E1F0B20023237060703B
:1039D0000CF0FAFBC60700F1DA800DB14107F1D413
:1039E00000212046FFF7CCFC02281BD1D4F802327C
:1039F0000093D4F812320193D4F822320293D4F80F
:103A0000323203936E46002556F8041B29B1204636
:103A1000FFF7B6FC012801D80CE003200135042D86
:103A2000F2D156E1042801D1012556E1012801D93E
:103A30000D2552E10128A16B0AD104F1470304F1DD
:103A40007C0213F8015B002DF2D19A42F9D1ADE06E
:103A5000B4F84730B3F5007FEAD1B4F8526006B944
:103A6000266E94F84C002662431E012BA070DFD80E
:103A700094F849506581002DDAD06B1E2B42D7D1C6
:103A8000B4F84DC0A4F808C01CF00F0FD0D1B4F8A2
:103A90004F3003B9E36DB4F84A20002AC8D006FBC2
:103AA00000FE02EB1C177744BB42C1D3D81BA842CF
:103AB000B0FBF5F3BCD338488342B9D84FF6F57064
:103AC000834240F2FF80032502330A440F44032D52
:103AD000E3616162A262276308D1B4F866205CEA00
:103AE0000202A5D1A26EE2629B000EE0BCF1000FC3
:103AF0009ED07244022DE2624FEA43021BBFD218ED
:103B000003F00103134603EB520303F2FF13B6EB7A
:103B1000532F8DD34FF0FF33C4E90533032D4FF0FE
:103B20008003237122D1B4F86C30012B1ED10131F6
:103B30002046FFF70BFCC8B9B4F83A2220714AF6C8
:103B400055239A4212D1E26B144B9A420ED103F1E3
:103B5000FF53D4F8202203F5005320339A4205D1B5
:103B6000D4F82432A361D4F8283263610C4A25705A
:103B7000138801339BB21380E3800A4BE3600A4B46
:103B800023610025A9E00B25A7E00C25A5E003256E
:103B9000A3E000BF4C070020F5FFFF0F5252614128
:103BA0005007002054070020CC060020B4F8A430B1
:103BB000B3F5807F7FF43CAF94F8A830092B7FF4F5
:103BC00037AFD4E921064FF0FF33081846F100065D
:103BD000834275EB0603FFF42BAFD4F890302362D9
:103BE00094F8AA30A370012B7FF422AF94F8A92097
:103BF00003FA02FC1FFA8CF26281002A3FF418AF2C
:103C0000D4F89870364A97423FF612AFBA1CD4F8EF
:103C10008C30E261D4F8942061620A4419441FFA9E
:103C20008CF37B439B18226345EB0502984276EBAD
:103C30000203A162FFF4FCAED4F89C30E3622E468E
:103C40007DB96389B3427FF6F3AEE16A2046FFF7A0
:103C50007DF981192046FFF779FB00287FF4E4AE57
:103C60000136631993F83C30812B03D02035C5F31E
:103C70000805E5E704F13C0635446D69012D7FF642
:103C8000D7AEE369AB427FF6D3AE6189236BAA1E40
:103C900002FB01336363A16A204601EBD511FFF7F4
:103CA00055FB00287FF4C0AE05F07F0356F82330A3
:103CB0005A1C03D00135AB42EDD0B9E6C4E9053357
:103CC000042553E740F6F575AB428CBF022501256C
:103CD000FAE604287FF4ACAEA6E6284605B0F0BDAF
:103CE000FDFFFF7F2DE9F84F05680746884631B98B
:103CF0006E69A6B1EB69B34298BF012610E0FFF7E9
:103D0000DBFB0128044601D80124DAE0421C00F064
:103D1000BA80EB69834200F2D480464600E0012677
:103D2000AB690BB90024CCE02A78EB69042A5BD19B
:103D3000A6F10209023B994528BF4FF00009CA4687
:103D40004FF0010B696B284601EB1A31FFF7FEFAC1
:103D500030BBEA690AF007030BFA03F3CAF3C801A0
:103D6000DBB2023A6818544690F83C000AF1010AA6
:103D7000924500EA030002D25B00DBB203E00023BD
:103D80009A464FF4007108B902340DE0D1450AD0CB
:103D9000002BE7D10131B1F5007FD3D20123E1E758
:103DA0004FF0FF3400E00024631E033300F28980EB
:103DB00001231A4621462846FFF740FB0228A3D0DC
:103DC000012860D0B8F1000F02D10223FB7165E039
:103DD000FB79022B5AD1731CA3425FD0BB68F31A44
:103DE000BB610323FB7151E0464515D1741C9C4215
:103DF00028BF022421463846FFF75EFB012883D006
:103E0000431C40D038B16B69012B05D9EA69934254
:103E100038BF1E4600E0ACB93446EB690134A3421A
:103E200003D8012E7FF67EAF022421463846FFF7E5
:103E300043FB38B101283FF467AF013023D0B442CF
:103E4000EBD16FE74FF0FF3221462846FFF70EFC1B
:103E5000B0B9B8F1000F05D0224641462846FFF719
:103E600005FC68B9D5E90632023A93429CBF03F1DA
:103E7000FF33AB612B796C6143F001032B7120E0C0
:103E800001287FF441AF4FF0FF341AE008F101023E
:103E9000A242FB6908D12BB10133FB6100287FF4FA
:103EA00033AFDFE70223F8E70BB90123FB612246BA
:103EB00041463846FFF750FC0028E1D10123FB6161
:103EC000D0E72046BDE8F88F2DE9F8430668076B78
:103ED0003378042B0CBF4FF080534FF4001320377E
:103EE000BB429CBF00238363836B04468946002B3F
:103EF00045D0C7F30808B8F1000F3AD1416B013340
:103F0000836331B93389B3EB571F32D80023A363DE
:103F100035E07389013B13EA57232AD1FFF7CCFA26
:103F20000128054601D802202CE0421C01D10120C5
:103F300028E0F369834216D8B9F1000FE6D0616B2F
:103F40002046FFF7CFFE0546D8B10128EBD0431C31
:103F5000EDD001463046FFF7AFFC0028E7D1E3790A
:103F600043F00403E371656329463046FEF7EEFF34
:103F7000A0633C3646442763E663002002E0042049
:103F800000E00720BDE8F8832DE9F0410546006810
:103F9000A96B0669FFF7DAF9044600285AD1E96BE4
:103FA0000B78852B55D120223046FFF79FF9777883
:103FB00001377F01A7F16003B3F5007F49D821469F
:103FC0002846FFF781FF0428044642D0002841D14B
:103FD000A96B2868FFF7BAF9044600283AD1E96BC3
:103FE0000B78C02B35D12022B018FFF77FF996F857
:103FF00023300F222C33B3FBF2F3B7EB431F28D34C
:104000004FF0400800212846FFF75EFF04280446D1
:104010001FD0F8B9A96B2868FFF798F90446C8B90A
:10402000E96B0B78C12B14D1B8F17F0F04D8202293
:1040300006EB0800FFF75AF908F120084745E1D8D8
:10404000B8F1800F06D83046FEF79CFF7388834294
:1040500000D002242046BDE8F0810000F8B50E46ED
:10406000002107680446FFF7B9FAD8B90546A16BE5
:104070003846FFF76BF9A8B93A78E36B042A1B7846
:1040800002D11B0603D506E0E52B00D01BB9013594
:10409000B54201D109E0054601212046FFF714FF92
:1040A0000028E4D0042808BF0720F8BD03682DE9E4
:1040B000F0411E6905463046FEF764FFE96C7080EA
:1040C00028467778FFF78AFA4FF001080446B4B91A
:1040D000A96B2868FFF73AF9044680B9E86B2022FB
:1040E0003146FFF703F92B6883F803803FB121467F
:1040F0002846FFF7E9FE20360446013FE7E7022C99
:1041000028BF0224E0B2BDE8F0810000C16C4B1C66
:104110002DE9F0410568066B044603D14FF0E50830
:10412000012717E0FFF75AFA0028F7D01BE02A789A
:10413000E36B042A09BF1A7883F8008002F07F023B
:104140001A70EF70236BB3420DD200212046FFF7A7
:10415000BBFE28B9A16B2846FFF7F8F80028E6D087
:10416000042808BF0220BDE8F08100002DE9F843D3
:10417000FF27D0F8008006463D4604244FF6FF791D
:10418000B16B002977D04046FFF7E0F804460028DD
:1041900075D1F06B0378002B70D098F80020042ABA
:1041A00010D1852B5FD1336BF3643046FFF7ECFE03
:1041B0000446002863D1D8F810301B7903F03F0380
:1041C000B3715EE0C27AE52B02F03F02B27149D0D2
:1041D0002E2B47D022F02001082943D00F2A36D1B8
:1041E000590605D503F0BF05336B477BF36401E047
:1041F000AB4237D1437BBB4234D1428B92BB037875
:10420000D8F80C40DFF880E023F040030D21013B9B
:104210004B4301211EF801CB30F80CC031B1162BF5
:1042200020D824F813C06146013301E0CC4519D1F0
:1042300001320D2AEED10278520605D521B1162B96
:1042400010D8002224F81320013DEDB20BE02DB967
:10425000FEF788FEB84201D1002412E04FF0FF3390
:10426000F3640EE0FF2500213046FFF72DFE0446E3
:10427000002885D003E0002CEED000E004240023C9
:10428000B3632046BDE8F883DC1501082DE9F04F43
:10429000002185B0D0F800800546FFF79FF98346DE
:1042A000002840F0DB8098F80030042B2DD1D8F89E
:1042B0000C00FFF701F807462846FFF757FF0446B2
:1042C00008BBD8F8103093F823A0BAF1160FF3D832
:1042D0009B8CBB42F0D14026544500F0B580F306DC
:1042E00008BF0236D8F81030985B01F0C3F8D8F850
:1042F0000C30814633F8140001F0BCF88145DBD165
:1043000002360134E8E78346A8E04FF0FF334FF070
:10431000FF09EB644E460290A96B4046FFF716F882
:10432000002840F08C80EF6B97F800A0BAF1000FE6
:1043300000F08780FA7ABAF1E50F02F03F03AB7123
:104340006ED0140702D50F2B6AD101E00F2B56D186
:1043500095F84B3058066BD41AF0400F06D02B6BF3
:1043600097F80D90EB640AF0BF0A01E056455ED164
:104370007B7B4B455BD17B8B002B58D13C78394EF6
:10438000D8F80CB0CDF80CA004F03F04013C0D238C
:10439000CA465C43B9460122CDF8008037460195F4
:1043A00017F8010B39F8005082B1162C3CD828467A
:1043B00001F060F806463BF8140001F05BF8864215
:1043C00004F1010830D12A46444603E04FF6FF735A
:1043D0009D4229D1244B9F42E2D14F46DDF8008017
:1043E0003B78019D5906D146DDF80CA003D512B1EA
:1043F0003BF81430DBB90AF1FF36F6B218E026B903
:104400003846FEF7AFFD484526D095F84B30DB0720
:1044100006D40B2205F140013846FEF789FDD8B1DC
:104420004FF0FF33EB6402E0DDE90085D146FF2663
:1044300000212846FFF748FD00283FF46DAF834672
:104440000CE04FF0040B09E0D8F80C3033F81430CE
:10445000002B7FF431AF01E0DDF808B0584605B01D
:10446000BDE8F08FDC150108E91501082DE9F04FD2
:1044700090F84B5015F0A00599B040F09381066874
:10448000F368044633F815200AB10135FAE73378AA
:10449000042B40F08E800F230E352046B5FBF3F53C
:1044A000A91CFFF7DBFD8246002840F08181236BC9
:1044B0000135A3EB4515E379E5645A0748D523F0A8
:1044C0000403E3712046FFF7DDF9002840F06D8119
:1044D000616B4FF0FF322046FFF73EF9002840F0B5
:1044E0006481A368002B33D023680293236A04936A
:1044F000636AA16A8DF80F3002A823F0FF03CDE9AB
:10450000063ACDF824A01591FFF768F8002840F08E
:104510004C8102A8FFF738FD002840F04681D4E91D
:10452000043170894FF40072E0FB02313269C4E952
:104530000431C2E90E31C2E90A31E37943F00103E3
:1045400082F8213002A8FFF7B1FD002840F02D814C
:10455000D6E903540021402285232046FEF7E2FCE1
:104560002370C02384F820300E46012240234FF0F0
:10457000C10E8C465F1C04F803E004F807C0F0B2DB
:10458000023322B135F811200AB10131C9B2E25229
:104590000233DF06F5D135F811700136002FE9D16D
:1045A000831C84F8231063702846FEF785FEA084E0
:1045B000FEE004F140070C22394602A8FEF796FE01
:1045C0009DF81330DB0771D54023DFF8EC8184F8C8
:1045D0004B304FF001090B2202A93846D6F80CA047
:1045E000FEF784FEB9F1050F14D9AAF102024B4679
:1045F00032F8021F79B1102001F0010C0CEB4303DB
:1046000013F4803F18BF83EA080301384FEA5101D1
:10461000F2D1EDE74B460DF10700072203F00F0C36
:104620000CF13001392988BF0CF13701013A9E465F
:1046300000F801194FEA131302D0BEF10F0FEDD8A5
:1046400002F160036B447E2103F8601C39460023AD
:104650009A4207D011F8010B202803F1010C01D078
:104660006346F5E704F13F00072A06D802F160012E
:104670006944013211F8601C00E020210133072B4E
:10468000C154F1D92046FFF701FE38B909F10109FB
:10469000B9F1640F9FD14FF0070A89E004288246E0
:1046A00040F086809DF8133084F84B309DF813302D
:1046B0009B0705D50C350D21B5FBF1F5013500E063
:1046C000012529462046FFF7C9FC824600286FD104
:1046D000013D19D1A16B3046FEF738FE8246002815
:1046E00066D101462022E06BFEF71CFC0B22E06B3A
:1046F0003946FEF7FBFD94F84B30E26B03F01803EC
:1047000013730123F37053E0216B2046A1EB451195
:10471000FEF764FF824600284AD13846FEF722FCA5
:104720004FF6FF798046A16B3046FEF70FFE034639
:1047300000283CD1E36BD6F80CE0DFF880A083F8CA
:104740000D804FF00F025FFA85FC0D21DA720CF13B
:10475000FF324A43187358830146484518BF3EF854
:1047600012001AF801BB01F1010118BF013223F850
:104770000B00002808BF48460D29EED1484502D05D
:104780003EF812200AB94CF0400C83F800C0012317
:10479000F37000212046FFF797FB034638B9013D2F
:1047A000C1D197E74FF0060A02E0824600E09A4640
:1047B000504619B0BDE8F08F21100100DC1501084A
:1047C000436B8B60D0E90E23C1E9042390F82130BC
:1047D00003F00203CB710023CB61704703284B8B9E
:1047E00004BF8A8A43EA0243184670472DE9F04F16
:1047F00085B00368029304468A4611F8013B2F2BCB
:10480000FAD05C2BF8D00021A160E1619AF8003069
:104810001F2B00F2C6808023204684F84B3005B061
:10482000BDE8F04FFEF7DABE5C281ED07F2805D821
:10483000A54B13F8012B002A40F0B880162E00F08B
:104840002D812BF8160001361AF8010B002800F014
:10485000B18040F2623100F0F9FD002800F01E81C5
:104860001F2840F2A7802F28DED1524613782F2B25
:10487000924602F10102F9D05C2BF7D01F2B8CBFBE
:1048800000250425ABF102023EB132F81630202B90
:1048900000F092802E2B00F08F8000222BF8162043
:1048A000002E00F0FB803BF812102029134602F185
:1048B0000102F8D0002B40F081802E297ED0ABF190
:1048C000020232F816102E2901D0013EF9D10B2236
:1048D000202104F140004FF00008FEF723FB4FF0C9
:1048E00008095A464746CDF804A0A34632F81300FB
:1048F0005C1C002800F0BA80202864D02E2860D0EC
:10490000C84564D3B9F10B0F64D1DDF804A05C464F
:1049100045F003054FF00B0994F84030E52B04BF38
:10492000052384F84030B9F1080F04BFBF00FFB27F
:1049300007F00C030C2B00F09D8007F00303032B02
:1049400000F09880AE0707D4F80748BF45F010057F
:10495000790748BF45F0080584F84B502046FFF71B
:1049600095FC94F84B30002840F087805A0700F1FE
:10497000A780A379DB0640F19380029B1878042876
:1049800040F08280A36823622369E27923F0FF0369
:1049900013436362E36CA362029B21461869FFF72D
:1049A0000FFF23680026D3F80CB04DE790427FF448
:1049B00040AF73E0042565E7013E65E745F0030578
:1049C0007DE7A6426ED045F0030523468EE7A6425A
:1049D0000DD167E0A64202D045F0030546D3BF00E3
:1049E000FFB234464FF00B094FF00808EDE77F287F
:1049F00024D940F26231039200F006FD10F0800FDE
:104A0000039A45F0020A04D0304B00F07F00185C96
:104A100012E0FF2810D909F1FF33984503D345F080
:104A20000305C846D1E70BEB0803010A83F84010E1
:104A300008F10108554612E0554628B1244B13F8F9
:104A4000011B29B18142FAD145F003055F2006E040
:104A5000A0F141039BB2192B28D847F002070BEBBA
:104A6000080308F1010883F84000AEE7DDF804A070
:104A70005C4651E745F0020564E7042820D113F0B5
:104A8000040F08BF05201BE0029B216B3C33C1F3E0
:104A900008011944FFF7A2FEA06082E706200FE09C
:104AA00005200DE0B9F10B0F99D12EE7A0F16103BC
:104AB0009BB2192BD3D8203847F0010780B2CEE73C
:104AC00005B0BDE8F08F00BF491501085C1501086D
:104AD000521501081FB5CDE9001003A81446039133
:104AE000FEF7C6FA002813DB0B4A52F820300BB150
:104AF00000211970019B0BB10021197042F8203080
:104B00003CB1002201A96846FEF73AFF044600E0E6
:104B10000B24204604B010BD4C0700202DE9F047BF
:104B20009AB00191002800F02A8102F03F05174653
:104B300004462A4603A901A8FEF722FF06460028DC
:104B400040F01981039B0199049304A8FFF74EFEDE
:104B500020B99DF95B30002BB8BF062017F01C0F61
:104B60007BD058B1042840F0068104A8FFF77EFCF2
:104B7000002840F0008145F008050AE09DF8163055
:104B800013F0110F40F0F480780700F1ED80390741
:104B900072D5039B1A78042A30D118692360214604
:104BA000FFF70EFE039B186900211E220230FEF75C
:104BB000B9F9039B18691A222630FEF7B3F9039B53
:104BC0001A69202111711F690BF0FCFA039BB86070
:104BD0001B69012283F8212004A8FFF767FA002847
:104BE00040F0C980A168002946D002462046FEF761
:104BF000CBFDA368039A013B53613BE00BF0E2FA63
:104C00001399DDF80C80C1F80E00C1F8160098F871
:104C10000000FFF7E3FD2023CB72139B00225A8391
:104C200098F80010DA61032908BF9A820123074629
:104C300088F8033000B30146002204A8D8F8388071
:104C4000FEF7A2FD002840F0968003984146FEF74B
:104C50007DFB039B013F5F610CE0002840F08B80EF
:104C60009DF81630DA0600F18180BF0704D5D80719
:104C70007ED401E000287ED1039A2907936B139913
:104C8000A364E164107848BF45F0400504280FD1C3
:104C9000069B2362089B9DF81710106923F0FF0301
:104CA0000B436362179BA3622146FFF789FD06E071
:104CB000FFF794FDA060CB69236100236361039B30
:104CC0002360DB88A3804FF000080022002304F15A
:104CD0005007C4E90E2384F830504FF4007284F872
:104CE0003180C4F8448041463846FEF71BF9AA06D5
:104CF00046D5D4E9045955EA090341D0039BA1687C
:104D0000B3F80AA0C4E90E594FEA4A2AAA4578EB3B
:104D100009030DD22046FEF7CFFBB5EB0A0569F17A
:104D200000090128014605D9431CEFD1012002E00A
:104D3000002000E002202164E8B9C5F30803FBB1BC
:104D4000DDF80C804046FEF701F998B16D0A45EA9E
:104D5000C9554219626498F80100012339460BF0E5
:104D6000C9FA68B1012006E0082004E0042002E04E
:104D7000072000E0022000232360064600E0092609
:104D800030461AB0BDE8F0872DE9F04F994687B05C
:104D900000238846C9F8003005A904461646FEF7E8
:104DA0007DF90546002840F0B38094F83150002D7D
:104DB00040F0AE8094F8303013F00103019300F01E
:104DC000A680D4E90432D4E90E011B1A62EB010279
:104DD000B34272F1000238BF1E4604F1500A029538
:104DE000002E00F09280D4E90E10C1F30803002BCE
:104DF0006FD1059B5A894B0A013A43EAC0531A40C6
:104E000018D151EA000301D1A06805E0216C03929A
:104E10002046FEF751FB039A012803D8022584F8A7
:104E2000315075E0431C04D10123019D84F83130D9
:104E30006EE02064DDF814B0216C5846FEF786F869
:104E40000028EBD0B6F5007F02EB000722D3BBF8B9
:104E50000A1002EB562088424FEA562588BF8D1A69
:104E60009BF801002B463A4641460BF043FA0028D6
:104E7000DAD194F93020002A0ADA606CC01BA8420B
:104E800006D24FF40072514608EB4020FEF72EFA8E
:104E90006F022BE0626CBA421AD094F93030002BCA
:104EA0000DDA9BF80100012351460BF065FA00284A
:104EB000BAD194F8303003F07F0384F8303005988D
:104EC000012340783A4651460BF014FA0028ABD142
:104ED0006764A16BC1F30801C1F50077B74228BF31
:104EE00037463A4651444046FEF700FAD9F80030BA
:104EF0003B44C9F80030D4E90E32DB1942F100021C
:104F0000C4E90E32F61BB8446AE7029D00E00725AB
:104F1000284607B0BDE8F08F2DE9F04F9B4685B0DD
:104F200000230F46CBF8003003A904461646FEF7CF
:104F3000B5F80546002840F0D88094F83150002D8F
:104F400040F0D38094F830309A0740F1CD80039B35
:104F50001B78042B03D0A36BF34228BFDE4304F17C
:104F60005009DEB1D4E90E10C1F30803002B40F064
:104F70008D80039B5A894B0A013A43EAC053134080
:104F8000019320D151EA000303D1A06868B901461A
:104F900000E0216C2046FEF7A5FE30B994F83030D1
:104FA00043F0400384F830309FE0012801D102250E
:104FB00002E0431C03D1012584F8315095E0A36839
:104FC000206403B9A06094F93030002B0EDA039806
:104FD000626C4078012349460BF0CEF90028EAD1F3
:104FE00094F8303003F07F0384F83030DDF80CA003
:104FF000216C5046FDF7AAFF0028D8D0019BB6F5DA
:10500000007F03EB00082BD30199BAF80A209AF825
:10501000010001EB562191424FEA562388BF019BC4
:10502000394688BFD31A424601930BF0A5F90028F0
:10503000C1D1616C019BA1EB080199420DD24FF4E3
:10504000007207EB41214846FEF750F994F83020F2
:10505000019B02F07F0284F830204FEA432828E0C9
:10506000636C434510D0D4E90E20216963698A42FC
:1050700070EB030308D29AF8010001234246494627
:105080000BF038F9002896D1C4F84480A06BC0F327
:105090000800C0F50078B04528BFB0464246394602
:1050A0004844FEF723F994F8303063F07F0384F826
:1050B0003030DBF800304344CBF80030D4E90E3216
:1050C000D4E9040118EB030342F10002984271EBAA
:1050D000020C3CBF18461146C4E90E32C4E9040173
:1050E000A6EB080647443CE70725284605B0BDE87F
:1050F000F08F0000F0B599B001A90446FDF7CEFF8E
:10510000002840F0898094F8303013F0400000F01F
:1051100083801B060FD50198626C4078012304F14F
:1051200050010BF029F9002875D194F8303003F0C4
:105130007F0384F830300BF045F80546019803787A
:10514000042B45D12046FEF79DFB002864D1216C3D
:105150004FF0FF322046FEF7FFFA00285CD12368AB
:105160000293236A0493636A8DF80F3023F0FF03E0
:10517000CDE90630A16A099002A81591FEF72EFA32
:10518000002849D102A8FEF7FFFE002844D1019A69
:1051900011690B7943F020030B71E379116943F036
:1051A000010381F82130D4E904671369A1685963C8
:1051B000C3E90E67D4E904675875C3E90A67DD607F
:1051C0001369186102A8FEF771FF28BB019819E066
:1051D000A16CFEF7BBF8F8B9E36C0198DA7A42F0FB
:1051E0002002DA722168A26809785A83032904BF71
:1051F000120C9A822269DA610022C3F816505A8290
:105200000123C370FEF782FB94F8303023F0400393
:1052100084F8303000E0012019B0F0BD13B5044629
:10522000FFF768FF28B901A92046FDF737FF00B94D
:10523000206002B010BD00001FB5019100283CD0D5
:105240000446002203A901A8FEF79AFB002831D1E9
:10525000039B019923602046FFF7C8FA00282ED14E
:1052600094F94B30002B1BDBA379DB0601D405201E
:1052700020E0039A107804280ED1A36823622369E2
:10528000E179106923F0FF030B436362E36CA362CF
:105290002146FFF795FA03E0E16BFFF79FFAA06064
:1052A000039BDB88A38000212046FEF797F90428A2
:1052B000DDD038B10023236004E0092002E0042897
:1052C000D5D0F7E704B010BD13B501A90446FDF72A
:1052D000E5FE00B9206002B010BD000073B50D46B8
:1052E00001A90446FDF7DAFEB0B925B9014620460A
:1052F000FEF774F910E02046FEF738FF10F0FB06C9
:105300000AD129462046FDF7FDFE31462046FEF72C
:10531000DBFD042808BF002002B070BDF8B50646CA
:105320000C4601F11A0721463046FFF7D7FF054624
:1053300050B94CB1A37E3BB102460423306D3946CF
:10534000FDF74AFE0028EED02846F8BD10B5BCB0E7
:105350000222019003A901A8FEF712FB002851D1F7
:10536000039B0199109310A8FFF740FA002849D138
:105370009DF98B30002B44DB9DF84630DA0701D5D0
:1053800007203FE0039B04931878042805D118698F
:1053900004A9FFF715FA069C03E01F99FFF71EFA10
:1053A00004469DF84630DB0604D410A8FEF7AEFE96
:1053B000D8B127E0039B269328941B78042B07D1B0
:1053C000DDE90823CDE92A239DF817308DF89F30B9
:1053D000002126A8FEF702F9A0B926A8FEF7C6FE0E
:1053E0000028CDD004280DD1DFE71CB90398FEF7C3
:1053F0008DFA07E00246214604A8FEF7C5F908B970
:10540000F4E706203CB010BD7F2800D817E0B0F5C7
:10541000803F16D240F26233994212D10A490023EA
:105420004FF4826203E0802B0BD031F8022F8242CE
:105430001FFA83FC03F10103F5D10CF1800080B267
:1054400070470020704700BF9C1801087F280DD9C5
:1054500040F26233994208D1FF2806D800F100409B
:10546000034B803833F8100070470020704700BFAE
:105470009C180108B0F5803F55D22B4A2B4BB0F554
:10548000805F30B541F67D5184B234BF612113464F
:1054900004331D46002944D08C4242D333F8022CF9
:1054A0005FFA82FC0CEB010E70454FEA12222EDAF5
:1054B000082A36D8DFE802F005090F13171B1F234F
:1054C0002700411A33F811402BE0631A03F001035F
:1054D000E31A9CB225E0A4F110039CB221E0A4F1F0
:1054E00020039CB21DE0A4F130039CB219E0A4F1AA
:1054F0001A039CB215E004F108039CB211E0A4F178
:1055000050039CB20DE0A4F5E3539CB209E00433D0
:1055100012B133F8041CBCE735F81C1005EB4C0342
:10552000B6E7204630BD7047E0170108EC150108CA
:1055300008B5202383F311880348FCF799FA002368
:1055400083F3118808BD00BF8407002038B50C46DE
:10555000202383F31188022902D003290ED010E002
:1055600005460A4A0121FCF749FB2846084A21461C
:10557000FCF744FB0748FCF74DFA02E00548FCF74E
:105580003DFA002383F3118838BD00BF14220108BF
:105590003022010884070020174AD2F8B407D2F855
:1055A000AC37D2F8B01710B5144C03440B43204667
:1055B00004F1180E03F01F0CBCF10A0F34BF3022A7
:1055C0003722624420F8022F5B09704543EAC16329
:1055D0004FEA5111EED10A4840F21A3100231A2243
:1055E000A0F8E01FA0F8D82FA0F8DA3FC0F8DC4FF1
:1055F00000F6D87010BD00BF00F0FF1FF08A002039
:10560000107B0020022913D0032904D001290A4865
:1056100018BF00207047032A05D1084B9B8A5B0501
:1056200002D5FFF7B9BF05D8054800EBC2007047A7
:105630000448704700207047B0220108080300208A
:10564000082301086422010830EE010AF0EE007A16
:10565000A0EEA70AF5EE007A20EE270A704700BFF9
:10566000F7EE002A9FED192A9FED193ADFED193A5E
:10567000A2EE003A9FED184AE3EE003ADFED174A3A
:10568000A3EE804A9FED165AE4EE004ADFED155A6C
:10569000A4EE805A9FED146AE5EE005ADFED136A1E
:1056A000A5EE806A9FED127AE6EE006AF5EE007ACA
:1056B000A6EE807AE7EE007AB0EE627AA0EE277A64
:1056C000E7EE002AB0EE620A704700BFD4CBA022FA
:1056D0004EE53426C400AB299998052D22152930B2
:1056E000221529332E740136B4A29138398EE33A4B
:1056F000398EE33CAAB101390B1A02FB03F303FB19
:1057000000F000FB02F207EE902A01FB01F1B8EE77
:10571000670A07EE901AF8EE677A80EE270AFFF71D
:105720009FBFB7EE000A7047054B1B6810B41C689A
:1057300024680A460146184623465DF8044B18477C
:105740008058002010B42C4C638B002B4BD004EB02
:10575000C30C224604F6C831F7EE002A04F5B6530E
:1057600092ED343A93ED007AD1ED016AD2ED353AFB
:10577000D1ED005AD3ED017A73EE474A37EE437A02
:1057800033EEE76A35EEA24A77EEE37A32EEE55A77
:1057900067EE265A012826EEC66A64EEA64AE7EEB0
:1057A000845A67EE043A67EEA66A08D1F0EE466ABC
:1057B000F0EE645AE7EE056AE7EE855A08E0B0F1CC
:1057C000FF3F12BF73EEE66A76EEE36AF1EE655ACA
:1057D00008326245C3ED006AC3ED015A01F10801C8
:1057E00003F10803BCD1A38C23F0040343F040036E
:1057F000A3845DF8044B7047F8080020084A08B5F8
:10580000138B03F00101814209D023F0010303430C
:105810002820138305F05AFC024B00221A7708BD9A
:10582000F8080020080300202DE9F04F2DED028B31
:10583000061E83B0154601DB554C93E0544CD4F85A
:105840000CA08A450F4680F08C80B4F82290206925
:1058500009F1FF3988421FFA89F901D84E4681E0E3
:10586000A0EB0A08A1EB0A0142460023A1FB0901B3
:10587000FBF74CF80646A6FB08CBC1174FEA5900C8
:105880001CEB000008FB01BB4BF1000B4A46002358
:1058900059460190FBF73AF80346019818EB0000CF
:1058A0004BF1000198464A460023FBF72FF80346C8
:1058B0000AEB080087429A44A3EB080352D05BB17D
:1058C00007EE903A3B1A07EE103AF8EE677AB8EE18
:1058D000477A87EE278A01E09FED2E8A03F098F839
:1058E0008046504603F094F8404501D1731C15E002
:1058F000384603F08DF8404508D1002E32DDF7EE32
:10590000007A334638EE278A013E07E0B14529DDAB
:10591000F7EE007A38EE678AB31C013604EBC60650
:1059200004EBC3042B1D2C35D6ED347A94ED347A78
:1059300037EE677A1A46E7EE087A083343ED037AC2
:10594000D6ED357A94ED357A37EE677AAB42E7EEED
:10595000087A06F6F82604F6F824C2ED007AE3D1B8
:1059600010E000262B1D04EBC6042C35D4F8D02003
:1059700043F8042CD4F8D42043F8082B9D4204F6B5
:10598000F824F3D103B0BDEC028BBDE8F08F00BF6B
:10599000F80800200000000010B52DED028B82B049
:1059A000044601A96846D4ED008A94ED018A0BF003
:1059B00017FBDDED007ADDED016A28EE677A67EE10
:1059C000A87AA6EEA87AE6EE887A84ED007AC4ED8D
:1059D000017A02B0BDEC028B10BD00BF012819D1C5
:1059E00008B50B460C49186802F022FE28B90B4A8C
:1059F000137843F04003137006E0012804D1074AEE
:105A0000137823F040031370BDE808404FF48D7005
:105A100005F05CBB704700BF0C2D0108A8030020F7
:105A200000283ED002283CDC1E4B9B8A5B0738D402
:105A300070B5022892B00ED14868019102F042FD83
:105A4000194C1A4B019900FB04F404F2E734A3FB50
:105A50000434A40901E044F6206409680191084671
:105A6000FBF7D6F80199124D124E02462346124812
:105A7000FBF76EFE1149104823460222FBF768FE31
:105A800002E033681B689847402202A92346284653
:105A9000FBF7D4FD024602A90648002AF1D112B054
:105AA00070BD704708030020A0860100D34D62102E
:105AB0007405002084070020940500204029010877
:105AC000022813D110B5086882B00C4602F0E0FC41
:105AD000014609B26068019102F0DAFC019902B254
